:100000000C94181A0C94401A0C94401A0C94401A30
:100010000C94401A0C94401A0C94401A0C94401AF8
:100020000C94401A0C94401A0C9464270C94D62714
:100030000C94401A0C94401A0C94401A0C94401AD8
:100040000C94401A0C94401A0C94401A0C94401AC8
:100050000C94401A0C94401A0C94401A0C94F92AEF
:100060000C94401A0C94401A0C94401A0C94401AA8
:100070000C94401A0C94401A0C94401A0C94401A98
:100080000C94401A0C94401A0C94401A0C94401A88
:100090000C94401A0C94401A0C94401A0C94401A78
:1000A0000C94401A0C94401A0C94401A4A2D942D2A
:1000B000D42D122EDA2F2630563392331434F0F822
:1000C0009C8E8783878E9CF8F00000FEFF0303035D
:1000D0000303070EFCF80000FEFF030303030307FE
:1000E0000EFCF80000FFFF00000000000000FFFF12
:1000F0000000FEFF8383838383C7EE7C380000F813
:10010000FC0E07030303070EFCF800003F7FE0C06E
:100110008080C0E07F3FFFFF01010101010101FF7D
:10012000FF0000FFFF0C0C0C0C1C3E77E3C100002D
:100130007FFFC0C0C0C0C0E0703F1F00001F3F7005
:10014000E0C0C0C0E0703F1F00007FFFC1C1C1C15F
:10015000C1E3773E1C00001F3F70E0C0C0C0E070EC
:100160003F1F000000000001FFFF01000000D5F06C
:100170008D14A1C881CFD9F1AF2000FFFFFFFFFF91
:10018000FFFFFFFFFFFFFF0F0F0F0F0F0F0F0F0FEF
:100190000F0F0F004040603058F81CDC10E20000E8
:1001A000020605040405020205020000404060301A
:1001B00058F81CDC10E200000206050404050202E7
:1001C000050200E0E0F0F8FCFCFEFEFEFFFFF70792
:1001D0000F0F0F0F0F0F0F0F0F0F07E0E0F0F8FCDE
:1001E000FCFEFEFEFFFFF7070F0F0F0F0F0F0F0FA5
:1001F0000F0F073C7EFFFFFFFF7E3C9F8587009F20
:10020000859B009F911F001F11001F111F00000000
:1002100000000000000000000000000000000000DE
:10022000000000000000000000000000008080804E
:1002300000808080EFA2AF00EFA80E608F6A000000
:1002400000000000000000000000000000000000AE
:100250000000000000000000000000000000E0209E
:10026000E020E000E0A0EE0AEB000BEAAFFA22FB90
:1002700000FBAA00FB00FB88E800F820F80008F863
:100280000800000000000000000000000000000066
:100290000000000000000003000300FBA8EB0013B7
:1002A000080302E8ABBABE30BE00BEAA803E803E64
:1002B000A2BA803E083E00023E020000000000009C
:1002C00000008080000080808000BE00BE2ABE80CA
:1002D0008202BE8000BEA0803EAA94802EAABAEF01
:1002E000A20F608F620FE0AF00EFA2AD0000000030
:1002F00000000000000000E020C000EFAAE500EFD1
:10030000A26D00EF886F000F000F00EFAA4000EF12
:100310000000E00FE000EFAAFBAA5000FB8000FB0A
:100320008AF802FA8BF800F88870000000000000DC
:1003300003020100030003000300030003000300A5
:100340000000000003020100030200030203F88B17
:10035000FAFFFFFFFFFFFFFFFFFFFFFFFFFFFFFFB2
:100360003F0F070303011D79E391E3791D010303A7
:10037000070F3FFFFFFFFFFFFFFFFFFFFFFFFFFF35
:10038000FFFFFFFFFFFFFFFFFFFFFFFFFF7F3FD1EB
:1003900000F008D41AAB34284BEB4B2834AB1AD4FA
:1003A00008F000D13F7FFFFFFFFFFFFFFFFFFFFFD0
:1003B000FFFFFFFFFFFFFFFFFFFFFFFFFF0458A747
:1003C000C03F40B641076F3F989B9F3F6F0741B6C4
:1003D000403FC0F3480C9FFFFFFFFFFFFFFFFFFF01
:1003E000FFFFFFFFFFFF7FBF5F2F2F1FEBACA1A61B
:1003F0007F448952B541A9C35FDC5F836981250AC7
:10040000857EB7B4FC8617572F5FBF7FFFFFFFFFC6
:10041000FFFF3FCF330C030000804080070479FDCD
:10042000FCFEE3050A1502FF00AAFF00150A05E01D
:10043000FBFCFD790407004080000D126D937FFFE7
:10044000FF031C0300000000100A15000000000755
:100450001F0F0F1E0000001F000A1F0000001E0FCC
:100460000F1F070000000001021508000000031C18
:100470000397959D809F009F90800F908F001F9500
:10048000801F851B00000000009F849F009F851F28
:10049000001F0C9F009F849B000000000000CF40C5
:1004A0004F00CF40CF08CF40CF08C7400FCA400F02
:1004B00008000000C0400ACA0FC04F4200C202C07C
:1004C0000F40CF4A0FC04000C040C00505070007DD
:1004D00001010007010700070400070500000000F4
:1004E00000070100070007040700070107000007D5
:1004F0000000070500070106000000000010182496
:1005000024225252B10909192525538B8B0B05055D
:1005100005050505050301000000000000000000BE
:1005200000000000000000000000000000000000CB
:100530000000000020505050909090209070902823
:100540004857525252525252525551525292942836
:100550004844949494545444A8A8587010101050CF
:10056000D090A0A0A040404040C04080800000004B
:1005700000008040201B6C69FA419629AA6A6292A9
:100580000939C98D958DC93909CA5252D5A94A4A26
:10059000AAA9A9A9981434544CAA22B2924A4A2A68
:1005A0001A1A0A060603020404050A0C00030405CD
:1005B000050201018080818281808000030C33C0AC
:1005C0005FC0631807000101000001010000000086
:1005D000000000000000010000000000000000001A
:1005E00000000000000000000000000000020505FF
:1005F000020102040405040B090702050A05002391
:10060000552D1515090B0D0B0D09050505050505DE
:1006100005020505050503030100000000000000B8
:10062000000000007F414177497F414155557F419E
:10063000417D437E147F41415D55770000F00F01FD
:100640000101E12121418101010101C23C000000C1
:1006500080700E0101810101010101FF0000000015
:10066000F807010101E12121C10101010101C23CA1
:1006700000E01F010101E11F0000F807010101F185
:100680000F0000F807010101F10F00F80601010158
:10069000C1212121C10101010102FC00FCAB302874
:1006A000B0F80F0000F0AF3028B0E81F0000C0BC69
:1006B0002B30A8F00F00FFA83028B0FF000000F892
:1006C000B7283028303F20302F302830A8700F0056
:1006D000FCAB3028B0F80700E0BE293028B0FC039E
:1006E0000000FCAB3028B0F8070000FFA8B0A8B0AD
:1006F000ABB4ACB42D352D35ADF900F8FFFFFFFFDD
:10070000FFF3F0F0FCFFFFFFFFFF0380F0FEFFFFB1
:10071000FF7F7F7F7E7EFFFFFFFFFFFF0080FEFFEA
:10072000FFFFFF7F0707FFFFFFFFFFFFFE00C0FF88
:10073000FFFFFFFF7F0300F8FFFFFFFFFFFFF0F069
:10074000F0FCFFFFFFFF7F0F00FCFEFEFEFEFEFE43
:10075000F0F0F0FFFFFFFFFFFF00000303030303C0
:100760000303030303030303010000030303030361
:10077000030000000000030303030303000303035B
:1007800003030300000001C34343C30383808303C7
:10079000C34343C300000000010303030303030337
:1007A00003030303010000E010C8211303E3A34384
:1007B00003C3A3A3031323C910E00000000000003B
:1007C0000000000000000000000000000000FEA289
:1007D000A2AA8AFEFA8282FAFE8282EA82FE8282DD
:1007E000EA92FEFA8282FA0F0A0CFF8381EC81837F
:1007F000FF0A0C07FE8282EE92FE8282AAAAFEF215
:10080000828EF21E000000030409020400030201AC
:1008100000020201000402090403006E620C626C13
:10082000006060006060006060007E006E660C60CA
:1008300060006060006060006060007E006C660CBC
:100840006060006060006060006060000E020C028A
:100850000C000000000000000000007E000E060CEE
:100860000000000000000000000000007E000C06F8
:100870000C0000000000000000000000007E7F7FF0
:100880007F7F7F7F7F7F7F7F7F7F7F7F7F7F7F7F78
:100890007F7F7F7F7F7F7F7F7F7F7F7F7F7F7F7F68
:1008A0007F7F7F7F7F7F7F7F7F7F7F7F7F7F7F7F58
:1008B0007F000000000000000000000000000000B9
:1008C0000000000000000000000000000000000028
:1008D0000000000000000000000000000000000018
:1008E0000000000000000000000000000000000008
:1008F00000000000000000000000000000000000F8
:1009000000000000000000000000000000000000E7
:1009100000000000000000000000000000000000D7
:1009200000000000000000000000000000000000C7
:1009300000000000000000000000000000000000B7
:10094000000000000000000000000000000000FFA8
:10095000FFFFFFFFFFFFFFFFFFFFFFFFFFFFFFFFA7
:10096000FFFFFFFFFFFFFFFFFFFFFFFFFFFFFFFF97
:10097000FFFFFFFFFFFFFFFFFFFFFFFFFFFFFFFF87
:10098000FFFFFFFFFFFFFFFFFFFFFFFFFFFFFFFF77
:10099000FFFFFFFFFFFFFFFFFFFFFFFFFFFFFFFF67
:1009A000FFFFFFFFFFFFFFFFFFFFFFFFFFFFFFFF57
:1009B000FFFFFFFFFFFFFFFFFFFFFFFFFFFFFFFF47
:1009C000FFFFFFFFFFFFFFFFFFFFFFFFEFFFFFEF57
:1009D000FFFFDBFFFFDBFFFFABFFABFF55AB55AB13
:1009E00055AB55AB5555555555555555550000000A
:1009F00000000000000000000000000000000000F7
:100A000000000000000000000000000000000000E6
:100A100000000000000000000000000000000000D6
:100A200000000000000000000000000000000000C6
:100A300000000000000000000000000000000000B6
:100A400000000000000000000000000000000000A6
:100A50000000000000000000000000000000000096
:100A60000000000000000000000000000000000086
:100A70000000000000000000000000000000000076
:100A800000000000000000000000005555555555BD
:100A900055555555AB55AB55AB55AB55FFABFFABAE
:100AA000FFFFDBFFFFDBFFFFEFFFFFEFFFFFFFFFBE
:100AB000FFFFFFFFFFFFFFFFFFFFFFFFFFFFFFFF46
:100AC000FFFFFFFFFFFFFFFFFFFFFFFFFFFFFFFF36
:100AD000FFFFFFFFFFFFFFFFFFFFFFFFFFFFFFFF26
:100AE000FFFFFFFFFFFFFFFFFFFFFFFFFFFFFFFF16
:100AF000FFFFFFFFFFFFFFFFFFFFFFFFFFFFFFFF06
:100B0000FFFFFFFFFFFFFFFFFFFFFFFFFFFFFFFFF5
:100B1000FFFFFFFFFFFFFFFFFFFFFFFFFFFFFFFFE5
:100B2000FFFFFFFFFFFFFFFFFFC0C0E0E0E0E0C00E
:100B3000C0C0C0C080408040E0E0E0E0E0E0408035
:100B40002040E0E0C0C0C0C0C0800080C0C0C08005
:100B5000C0C0E0E0E0E0C0C0C0C0C080408040E075
:100B6000E0E0E0E0E040802040E0E0C0C0C0C0C085
:100B7000800080C0C0C08000C0C0E0E0E0E0C0C035
:100B8000C0C0C080408040E0E0E0E0E0E040802085
:100B900040E0E0C0C0C0C0C0800080C0C0C080C015
:100BA000C0E0E0E0E0C0C0C0C0E0F0F0F0F0F0F085
:100BB000E0E0E0E0E0E0E0F0F0F0F0F0F0F0F0F0A5
:100BC000F0F0F0F0F0E0E0E0E0E0C0E0E0E0E0E0F5
:100BD000E0F0F0F0F0F0F0E0E0E0E0E0E0F0F0F085
:100BE000F0F0F0F0F0F0F0F0F0F0F0F0E0E0E0E045
:100BF000E0C0E0E0E0E0E0E0E0F0F0F0F0F0F0E0B5
:100C0000E0E0E0E0E0E0F0F0F0F0F0F0F0F0F0F044
:100C1000F0F0F0F0E0E0E0E0E0C0E0E0E0E0E0E0B4
:100C2000F0F0F0F0F0F0E0E0E0030307070707035F
:100C30000303030301020102070707070707020175
:100C40000402070703030303030100010303030175
:100C50000303070707070303030303010201020756
:100C6000070707070702010402070703030303033B
:100C70000100010303030100030307070707030340
:100C80000303030102010207070707070702010424
:100C90000207070303030303010001030303010326
:100CA000030707070703030303070F0F0F0F0F0FB8
:100CB000070707070707070F0F0F0F0F0F0F0F0F7C
:100CC0000F0F0F0F0F070707070703070707070790
:100CD000070F0F0F0F0F0F0707070707070F0F0F5C
:100CE0000F0F0F0F0F0F0F0F0F0F0F0F0707070734
:100CF0000703070707070707070F0F0F0F0F0F0758
:100D00000707070707070F0F0F0F0F0F0F0F0F0F23
:100D10000F0F0F0F07070707070307070707070747
:100D20000F0F0F0F0F0F0707070000000000000054
:100D300000000000000000000000000000000000B3
:100D400000000000000000000000000000000000A3
:100D50000000000000000000000000000000000093
:100D60000000000000000000000000000000000083
:100D70000000000000000000000000000000000073
:100D80000000000000000000000000000000000063
:100D90000000000000000000000000000000000053
:100DA000000000000000000000A000A040800080C3
:100DB0000000000000A814A2500A11884528052848
:100DC000012A518204284088102040004080008081
:100DD0000000400040204020400040800080008013
:100DE00000004080408000000000000000A010884B
:100DF0004422148A508A500A500254A00408102039
:100E00004000408000000000008000804080408062
:100E10004080008000000000000000000000008012
:100E2000008040004000408000A241A241824480F6
:100E30000508010A14001428410A44A801AA548094
:100E40004008002001A01482552A018254A85002B3
:100E5000000A10A241A2408244824480048804888F
:100E6000050205020408050A110A14220428400894
:100E700051A24082550204A8108050004100108009
:100E800051A2040850A0450015A044824482448029
:100E9000448800880188118A008A008241804520A8
:100EA00044224122412244A2450001000102018264
:100EB0000582018240A240A040A0102050A050A076
:100EC00051A851A84588448244820582018040800F
:100ED00040A04020502010A0118011281128112876
:100EE000512241A244A24480448804880488448852
:100EF0004420048041A041A050A25082508A018821
:100F0000040A0402010201880582418241A24120B3
:100F100040200020102010201000100010001000B1
:100F2000100800080008000000020502010201028A
:100F30000100050005000402000200020002040096
:100F40000508050805080500050005000402000263
:100F5000000201000100000001000102010205027F
:100F6000040A040204020402050A010A010A05082F
:100F7000050004000408050A1108110A110A010AF3
:100F8000010A010A050A050005000002000001002F
:100F90000000000000000000000000000000000051
:100FA0000000000000000000000000000000000041
:100FB0000000000000000000000000000000000031
:100FC0000000000000000000000000000000000021
:100FD0000000000000000000000000000000000011
:100FE0000000000000000000000000000000000001
:100FF00000000000000000000000000000000000F1
:1010000000000000000000000000000000000000E0
:1010100000000000000000000000000000000000D0
:10102000000000000000000000BD5EAFD7EBF5FA45
:10103000FDFEFFFFFFFFFFFFFF7FBF5FAFD7EB7539
:10104000BA5DAED7EBF5FAFDFEFFFFFFFFFFFFFF36
:10105000FF7FBF5FAFD7EB75BA5D2E974B259249E7
:10106000A4D2E9F47ABD5EAFD7EBF5FAFDFEFF7FBF
:10107000BF5FAFD7EB75BA5D2E974B25924924928F
:1010800049A452A954AAD5EAF5FA7DBE5FAFD7EBC1
:10109000F5FAFDBEDFAFD7EBF57ABD5E2F974BA516
:1010A000D66BB55AADD6EBF57A1616161616161679
:1010B0009656B6562E168A55B2552E160A15121584
:1010C0001616161616161616161636162E168A55D5
:1010D000B2552E160A651249241209145235562E9D
:1010E000160A15121516161636162E168A55B255EC
:1010F0002E168A659249241249245229542A150A27
:1011000015125536562E160A1512151616161616DF
:101110009656B656AE164A259249B4522D160A1561
:101120005235562E160A15121540205028140A055D
:1011300002010000020102010000000000000000A6
:101140000000000000000000201028140A05020121
:10115000000000000000000000000000000000008F
:10116000000000000000201028140A050201000001
:101170000201020100000000000000000000000069
:1011800000000000000000000000004020502A1570
:101190000A05020100000201020100000000000037
:1011A000000000000000000000000000000000003F
:1011B000000000000000000000000000000000002F
:1011C000000000000000000000000000000000001F
:1011D000000000000000000000000000000000000F
:1011E00000000000000000000000000000000000FF
:1011F00000000000000000000000000000000000EF
:1012000000000000000000000000000000000000DE
:1012100000000000000000000000000000000000CE
:1012200000000000000000000000000000000000BE
:1012300000000000000000000000000000000000AE
:10124000000000000000000000000000000000009E
:10125000000000000000000000000000000000008E
:10126000000000000000000000000000000000007E
:10127000000000000000000000000000000000006E
:10128000000000000000000000000000000000005E
:10129000000000000000000000000000000000004E
:1012A000000000000000000000000000000000003E
:1012B000000000000000000000000000000000002E
:1012C000000000000000000000000000000000001E
:1012D000000000000000000000000000000000000E
:1012E00000000000000000000000000000000000FE
:1012F00000000000000000000000000000000000EE
:1013000000000000000000000000000000000000DD
:1013100000000000000000000000000000000000CD
:1013200000000000000000000000000000000000BD
:1013300080C040C0408000000000000000000000AD
:1013400080603EEAD4A850A0C00080C04080000069
:1013500000000000008080C0C040C04080800000CD
:1013600000000000808080C0C0E0F078D4A850C0A9
:101370008000000080C0C0E0B050E080800000002D
:101380000000000000008080808040C0C0C08080DD
:10139000808080808080C0C0C0808080C0C0C0E06D
:1013A000E0A0408080000000001C1C14141A1D1DC9
:1013B0001F1F1902050E0D1A1E1C1C181C1C0613DB
:1013C000011C1F1803060D0E1F1F1F1F1D1E1D1EB3
:1013D0001E1C1E1E1B1103050B17160D0E1D1F1DB7
:1013E0001F1D1B1313170F0F1F1F1F1F1C10011290
:1013F00007070F0B151B170F0E1D1E1D1F1D1F1F8F
:101400001F1F1D1F191519030706070E0F1D1E1D8F
:101410001F1F1F1F0F171A1B1D1F171B1B1B1B1D19
:101420001F1E1D1A1D1B1F1A1E000000008080C0F9
:10143000E0E0E0E0E0E0C08000000000000080C0EC
:10144000F0FFFFFFFFFEFCF8F0E0E0E0E0E0C0802E
:1014500000000080C0C0E0E0E0E0E0E0E0C0C0806C
:10146000808080C0C0C0E0E0F0F8FCFEFEFEFCF82A
:10147000E0C080C0E0E0F0F8F8F8F8F0C0C080808C
:101480008080808080C0C0C0C0E0E0E0E0E0E0C0DC
:10149000C0C0C0C0C0E0E0E0E0E0C0E0E0E0F0F0EC
:1014A000F0F0F0E0C0C08080001E1E1E1F1F1F1F36
:1014B0001F1F1F1F1F1F1F1F1F1F1E1E1E1F1F1F3F
:1014C0001F1F1F1F1F1F1F1F1F1F1F1F1F1F1F1F2C
:1014D0001F1F1F1F1F1F1F1F1F1F1F1F1F1F1F1F1C
:1014E0001F1F1F1F1F1F1F1F1F1F1F1F1F1F1F1F0C
:1014F0001F1F1F1F1F1F1F1F1F1F1F1F1F1F1F1FFC
:101500001F1F1F1F1F1F1F1F1F1F1F1F1F1F1F1FEB
:101510001F1F1F1F1F1F1F1F1F1F1F1F1F1F1F1FDB
:101520001F1F1F1F1F1F1F1F1F28040044024022D0
:1015300044884088040244A240800408008044009B
:10154000402240820488400840280400440240228F
:1015500044884088040244A240800408008044007B
:10156000402240820488400840280400440240226F
:1015700044884088040244A240800408008044005B
:10158000402240820488400840280400440240224F
:1015900044884088040244A240800408008044003B
:1015A00040224082048840084008008010080080E3
:1015B00044200028440810804000010010A20002CE
:1015C00004000408102000000008008010080080BB
:1015D00044200028440810804000010010A20002AE
:1015E000040004081020000000080080100800809B
:1015F00044200028440810804000010010A200028E
:10160000040004081020000000080080100800807A
:1016100044200028440810804000010010A200026D
:101620000400040810200000000000000102010076
:1016300000000000000000000000000001000002A7
:10164000040800080000040201000000010201007B
:101650000000000000000000000000000100000287
:10166000040800080000040201000000010201005B
:101670000000000000000000000000000100000267
:10168000040800080000040201000000010201003B
:101690000000000000000000000000000100000247
:1016A00004080008000004020100402040A040801F
:1016B000408000000000000000000000000000006A
:1016C00000000000000000004000402040A04080DA
:1016D000408000000000000000000000000000004A
:1016E00000000000000000004000402040A04080BA
:1016F000408000000000000000000000000000002A
:1017000000000000000000004000402040A0408099
:101710004080000000000000000000000000000009
:10172000000000000000000040204100408204084A
:1017300001220102040800081020100010080428EB
:101740001402100A010804024120410040820408EA
:1017500001220102040800081020100010080428CB
:101760001402100A010804024120410040820408CA
:1017700001220102040800081020100010080428AB
:101780001402100A010804024120410040820408AA
:10179000012201020408000810201000100804288B
:1017A0001402100A01080402412000201008112030
:1017B00010200020002810201008102000200020F9
:1017C00010081008112000004020002010081120EF
:1017D00010200020002810201008102000200020D9
:1017E00010081008112000004020002010081120CF
:1017F00010200020002810201008102000200020B9
:1018000010081008112000004020002010081120AE
:101810001020002000281020100810200020002098
:10182000100810081120000040FFFFFFFFFFFFFF1E
:10183000FFFFFFFFFFFFFFFFFFFFFFFFFFFFFFFFB8
:10184000FFFFFFFFFFFFFFFFFFFFFFFFFFFFFFFFA8
:10185000FFFFFFFFFFFFFFFFFFFFFFFFFFFFFFFF98
:10186000FFFFFFFFFFFFFFFFFFFFFFFFFFFFFFFF88
:101AA000FFFFFFFFFFFFFFFFFF7F7F7F7F7F7F7FC6
:101AB0007F7F7F7F7F7F7F7F7F7F7F7F7F7F7F7F36
:101AC0007F7F7F7F7F7F7F7F7F7F7F7F7F7F7F7F26
:101AD0007F7F7F7F7F7F7F7F7F7F7F7F7F7F7F7F16
:101AE0007F7F7F7F7F7F7F7F7F7F7F7F7F7F7F7F06
:101AF0007F7F7F7F7F7F7F7F7F7F7F7F7F7F7F7FF6
:101B00007F7F7F7F7F7F7F7F7F7F7F7F7F7F7F7FE5
:101B10007F7F7F7F7F7F7F7F7F7F7F7F7F7F7F7FD5
:101B20007F7F7F7F7F7F7F7F7F8080C0A0A0D0D09E
:101B3000687474BCF0F0F0F8F47AFAF4FAFA7A7A8D
:101B40007A76FAFAFAFAFEFEF6F4F8F0F0E0D0D07F
:101B5000D0D0D0B0D0D0D0D0F0F0B0A0C080800035
:101B60000080808080000000008080808080800075
:101B700000804040408000000000000080808040E5
:101B8000E0E0A040C0C0C0E0D0E8E8D0E8E8E8E885
:101B9000E8D8E8E8E8E8F8F8D8D0E0C0C08000006D
:101BA00080808080808080808003030202030303A2
:101BB00003030303030303030303030303030303F5
:101BC00003030303030303030303030303030303E5
:101BD00003030303030303030303030303030303D5
:101BE00003030303030303030303030303030303C5
:101BF00003030303030303030303030302020303B7
:101C000003030303030303030303030303030303A4
:101C10000303030303030303030303030303020395
:101C2000030202030302020203C0E0F0F0F8F8FC32
:101C3000FEFEFEFEFEF8FCFEFFFFFFFFFFFFFFFFC4
:101C4000FFFFFFFFFFFFFFFFFFFFFEFCF8F8F8F8C4
:101C5000F8F8F8F8F8F8F8F8F8F8F8F8F0E0C0C094
:101C6000C0C0C0C0C0C08080C0C0C0C0C0C0C0C0F4
:101C7000C0E0E0E0E0E0C080808080C0C0C0E0F074
:101C8000F0F0F0F0E0E0F0F8FCFCFCFCFCFCFCFC0C
:101C9000FCFCFCFCFCFCFCFCFCFCF8F0E0E0C0C044
:101CA000C0C0C0C0C0C0C0C0C0030303030303035F
:101CB00003030303030303030303030303030303F4
:101CC00003030303030303030303030303030303E4
:101CD00003030303030303030303030303030303D4
:101CE00003030303030303030303030303030303C4
:101CF00003030303030303030303030303030303B4
:101D000003030303030303030303030303030303A3
:101D10000303030303030303030303030303030393
:101D200003030303030303030307070303070B0B67
:101D30000B070303030303030505070B1F1F170B03
:101D40000505070707070707070F172F2F172F2F5F
:101D50002F2F2F372F2F2F2F3F3F37170F07070317
:101D6000070505050707070D15172F2F5BBBBBF7E9
:101D70000707070707030707070703030303070707
:101D800007070707070F172F2F172F2F2F2F2F3773
:101D90002F2F2F2F3F3F37170F0707030307070783
:101DA0000703030303070707070000000000000004
:101DB0000000000000000000000000000000000023
:101DC0000000000000000000000000000000000013
:101DD0000000000000000000000000000000000003
:101DE00000000000000000000000000000000000F3
:101DF00000000000000000000000000000000000E3
:101E000000000000000000000000000000000000D2
:101E100000000000000000000000000000000000C2
:101E20000000000000000000000F0F0F0F1F1F1F19
:101E30001F1F0F070707070F0F0F1F3F3F3F3F3FB2
:101E40001F0F0F0F0F0F0F0F1F3F7F7F7F7F7F7FB2
:101E50007F7F7F7F7F7F7F7F7F7F7F7F3F1F0F0F12
:101E60000F0F0F0F0F0F1F3F3F7F7FFFFFFFFFFF82
:101E7000FF0F0F0F0F0F0F0F0F0F0F07070F0F0F92
:101E80000F0F0F0F1F3F7F7F7F7F7F7F7F7F7F7FC2
:101E90007F7F7F7F7F7F7F7F3F1F0F0F0F0F0F0F92
:101EA0000F0F07070F0F0F0F0F00000000000000BB
:101EB0000000000000000000000000000000000022
:101EC0000000000000000000000000000000000012
:101ED0000000000000000000000000000000000002
:101EE00000000000000000000000000001010101EE
:101EF00001000000000000000000000000000000E1
:101F000000000000000000000000000000000000D1
:101F100000000000000000000000000000000000C1
:101F200000000000000000000008102090108884CD
:101F30008850880810201090488810A09010080041
:101F400014A09010102810A04060201008102090BD
:101F50001020402020109020402020100008204019
:101F600020202050204080C04020102040202040D1
:101F70008040402020408040C02000102010109061
:101F80002810204020201008102010102040A068A9
:101F9000D058A848B42890A05830488448508808A1
:101FA00090A05050880890A0501010204021201080
:101FB00010894C4952C9C9C44890A19008058A911A
:101FC00049442409120909081408112211110906AB
:101FD00009120C0A122110110A09112214120A21E5
:101FE0002542440084C9D0C8246264E428242644DD
:101FF000080810112211090902010204020201005D
:10200000010A09112214120A094526242A65E5E26B
:10201000A4C8504805814442222408040402020551
:102020000804040200050808080000000000000081
:1020300000000000000063DF55D5803CC2010000B5
:102040000000000000000000000000000000000090
:102050000000000000000000000000000000000080
:1020600000000000F12F6A6A00DE2100000000007D
:102070000000000000000000000000000000000060
:102080000000000000000000000000000000316FB0
:10209000AA6A401E618000000000000000000000ED
:1020A0000000000000000000000000000000000030
:1020B00000000000000080C0A7BC2A2A88611E0022
:1020C0000000000000000000000000000000000010
:1020D0000000000000000000000000000000000000
:1020E000804060505F1615C5300C030000000000F2
:1020F00000000000000000000000000000000000E0
:1021000000000000000000000000000000804060AF
:10211000535E1515C4300F000000000000000000E1
:1021200000000000000000000004048024162021AC
:10213000315A2E1A09921A244A2918A1221C0E1962
:1021400012A42412099212A245C291081111922CD4
:102150001289468A891021914A929108050685556F
:102160009185814485542160458204884080804067
:102170002040409088503050689008048808102013
:102180009008905088840800189406058551B5C1C0
:102190006445A441B09522A44884422444482814AC
:1021A00022A44448201028A84C0201000101020486
:1021B000020102020100010102020100010102000C
:1021C00005000101010201000000000102010001FF
:1021D00001000000000101000000000100020000F9
:1021E00000000001000000000000010000000000ED
:1021F00000000000000000000000000100010101DB
:1022000002010000000001020100010100000002C3
:10221000010302020502010003010204020102029D
:10222000010001010202010001FFFFFFFFFFFFFFAC
:10223000FFFFFFFFFFFFFFFFFFFFFFFFFFFFFFFFAE
:10224000FFFFFFFFFFFFFFFFFFFFFFFFFFFFFFFF9E
:10225000FFFFFFFFFFFFFFFFFFFFFFFFFFFFFFFF8E
:10226000FFFFFFFFFFFFFFFFFFFFFFFFFFFFFFFF7E
:10227000FFFFFFFFFFFFFFFFFFFFFFFFFFFFFFFF6E
:10228000FFFFFFFFFFFFFFFFFFFFFFFFFFFFFFFF5E
:10229000FFFFFFFFFFFFFFFFFFFFFFFFFFFFFFFF4E
:1022A000FFFFFFFFFFFFFFFFFF3F7FFFFFFF7F7F7E
:1022B000FFFFFFFFFFFFFFFFFFFFFFFFFFFFFFFF2E
:1022C000FFFF7F7F3F1F1F3F3F3F7F7F7F3F1F1FDE
:1022D0003F3F3F1F7F7F7F3F3F3F7F7F7F3F7F7F2E
:1022E000FFFFFFFFFFFFFFFFFFFFFFFFFF7FFFFF7E
:1022F000FF3F3F7F7F7F3F1F1F0F0F0F0F0F07070E
:102300001F1F3F7F7F7F3F3FFFFFFF7FFFFFFFFFDD
:10231000FFFFFFFFFFFFFFFFFF7F7F1F1F0F0F1F4D
:102320001F1F0F0F0F1F1F3F3F0000000000000086
:10233000010101000073FFFFFFFFFFFFFFE78301C3
:10234000010000000000000000000000000000008C
:10235000000000000000000000000000000000007D
:10236000000000FBFFFFFFFFFFFFFFF30100000085
:10237000000000000000000000000000000000005D
:10238000000000000000000000000000007BFFFFD4
:10239000FFFFFFFFFFF3C18000000000000000000E
:1023A00000000000000000000000000000808080AD
:1023B0008080000080C0E1FFFFFFFFFFFFFFFFBF45
:1023C000800000808080008080808080808000008D
:1023D000808080808080808000808080808080807D
:1023E000C0E0F0FFFFFFFFFFFFFF1F07000000003E
:1023F00000000000000000000000000000000000DD
:10240000000000000000000000008080C0E0E0FF4D
:10241000FFFFFFFFFFFF7F1F000000000000000024
:10242000000000000000000000FFFFFFFFFFFFFFB3
:10243000FFFFFFFFFFFFFFFFFFFFFFFFFFFFFFFFAC
:10244000FFFFFFFFFFFFFFFFFFFFFFFFFFFFFFFF9C
:10245000FFFFFFFFFFFFFFFFFFFFFFFFFFFFFFFF8C
:10246000FFFFFFFFFFFFFFFFFFFFFEFEF8F8F0F0AA
:10247000F8F8F8FCFCFCF8FCFCFCFEFEFEFCFCF8AA
:10248000FCFCFCFCFEFEFEFCFEFFFFFFFFFFFFFF6F
:10249000FFFFFFFFFFFFFFFFFEFFFFFFFEFEFEFF50
:1024A000FFFFFEFEFCFCFCFEFE7F7F7F7F7F7F7FC9
:1024B0007F7F7F7F7F7F7F7F7F7F7F7F7F7F7F7F2C
:1024C0007F7F7F7F7F7F7F7F7F7F7F7F7F7F7F7F1C
:1024D0007F7F7F7F7F7F7F7F7F7F7F7F7F7F7F7F0C
:1024E0007F7F7F7F7F7F7F7F7F7F7F7F7F7F7F7FFC
:1024F0007F7F7F7F7F7F7F7F7F7F7F7F7F7F7F7FEC
:102500007F7F7F7F7F7F7F7F7F7F7F7F7F7F7F7FDB
:102510007F7F7F7F7F7F7F7F7F7F7F7F7F7F7F7FCB
:102520007F7F7F7F7F7F7F7F7F383C3C1842421DCB
:102530003F7EFCFC7820001078FCBC4458783000CA
:10254000383C3C1842421D3F7EFCFC78200010784D
:10255000FCBC4458783000383C3C1842421D3F7E59
:10256000FCFC7820001078FCBC4458783000383CE3
:102570003C1842421D3F7EFCFC7820001078FCBCD9
:102580004458783000383C3C1842421D3F7EFCFCE9
:102590007820001078FCBC4458783000383C3C1857
:1025A00042421D3F7EFCFC78200082C67C7C3800C5
:1025B00000000000000000C7EFFFFFFEFE7C0101ED
:1025C0000101000000200020A87074E8AE4CAE9E0F
:1025D0009CBC78F00000000000000101020302032F
:1025E0000301010000002000207470EAAC4EAE9E92
:1025F0009CBC78F00000000000010201020302030D
:1026000003010100007070FCFEFEFFFFFFFFFFFFF3
:10261000FFFEFEFCF8000001030707070707070796
:102620000707030301707070FEFEFFFFFFFFFFFF4F
:10263000FFFEFEFCF8000000030707070707070777
:102640000707030301000000000000000000000075
:10265000000000000000000000000000000000007A
:102660000000008080C06060A0B0D0682C141C0CFA
:102670000400000000000000000000000000000056
:10268000000000000000000000000000000000004A
:10269000000000000000000000000000000000003A
:1026A000008080C0C06060C0FC9C3E8D1656F7075D
:1026B000FB1DE020E02060C040C0408080808000A2
:1026C000000080C040000080C060B058582C141634
:1026D00016160A06000010101010101018181818FE
:1026E0001818081C14160E0F9797D7DBEAEAED4B63
:1026F000955A2F373B3DBCBD7C7D78797A7972B590
:10270000B29592D5D2C54253D5333563E5331572B0
:10271000F5E89F608000000000000000000000005D
:1027200000000000000000000000000002020101A3
:1027300001010101000000000001010101070E0C70
:102740001B17362D39716160E0E0E04001010302A2
:10275000020506040000000000010307060D090A37
:102760001414181800000000000000000000000011
:102770000000000000000000000000000000000059
:102780000000000000000000000000000000000049
:102790000000000000000000000000000000000039
:1027A0000000000000000000000000000000000029
:1027B0000000000000000000000000000000000019
:1027C0000000000000000000000080C0C0E0F0F049
:1027D000F0F8F8FC7E3E3E1E0E04000000000000F3
:1027E00000000000000000000000000000000000E9
:1027F00000000000000000000000000000000000D9
:10280000000000000000008080C0C0E0E0F0F0FCAC
:10281000FEFEFFFFFFFFFFFFFFFFFDF0F0F0F0E027
:10282000E0E0E0C0C0C0C0808080C0E0E0C080C008
:10283000E0F0F8FCFC7E3E3F3F3F1F0F06103838AB
:10284000383838383C3C3C3C3C3C1C3E3E3F9F9F2B
:10285000FFFFFFFFFFFFFFFFFFFFFFFFFFFFFFFF88
:10286000FFFFFFFFFFFFFFFFFFFFFFFFFFFFFFFF78
:10287000FFFF7FFFFFFF7FFFFFFFFFFFE080800084
:102880000000000000000000000000000000000048
:102890000000000207070303030303030101010013
:1028A00001030303070F1F1F3F3F7F7F7FFBF3F1F0
:1028B000F1F1F1E143030707070F0F0E05000000D8
:1028C0000103070F0F1F1F1F3E3E3C3C1800000076
:1028D00000000000000000000000000000000000F8
:1028E00000000000000000000000000000000000E8
:1028F00000000000000000000101010000000000D5
:1029000000000000000000000000000000000000C7
:1029100000000000000000000000000000000000B7
:102920000000000000000000000000000080C04027
:1029300020B0D0482824141408282848509090101B
:1029400020202040400000000000000000000000A7
:102950000000000000000000000000000000000077
:1029600000000000000000000000000000000080E7
:102970008080A0D84E2790909BA338E4440814E4AC
:102980001ADCBC38C0F0F0E1C0000000000000001C
:102990000000000000000000000000008000008037
:1029A00000000000000000008080C0C0C0E0907007
:1029B00078B8A858DAD1D5B572E2D999048D05094D
:1029C00095DA6960180C767B9CB3F73E6DEB778FD8
:1029D000A7B07F762C08F0F030C0F06080E000E017
:1029E000ECC0EE53ACB6BB9B9D9C989000000001E0
:1029F000010303050E1A3A3B59EBF13590FBDFE07A
:102A0000ED76373B140B07030585864223D12E83D1
:102A1000C4F13D0DE0FA1B03F3F9020B0B080B07A1
:102A20000007070007000300010204080901010371
:102A30000303070700000000000000000000000082
:102A40000000000101010000000808888482C261C2
:102A500031180C0E01301E07010000003F71C0004C
:102A60000F3E60C080000000000000000000000079
:102A70000000000000000000000000000000000056
:102A80000000000000000000000000000000000046
:102A90000000000000000000000000000000000036
:102AA0000000000000000000000000000000000026
:102AB0000000000000000000000000000000000016
:102AC0000000000000000000000000000000000006
:102AD00000000000000000000000000080C0E0E0F6
:102AE000F0F8F8FC7C7E3E3E3C7C7CFCF8F8F8F884
:102AF000707070E0E0400000000000000000000086
:102B000000000000000000000000000000000000C5
:102B1000000000000000000000000000008080C0F5
:102B2000C0E0F8FEFFFFFFFFFFFFFFFEFEFCFEFF21
:102B3000FFFEFEFCF8F9F9F3E1C0800000000000A0
:102B4000000000000000000000000080C08080C085
:102B50008000000000000080C0C0E0E0E0F0F8F875
:102B6000FCFCFCFEFFFFFFFFFFFFFFFFDFDF9F9F7F
:102B7000FFFFFFFFFFFFFFFFFFFFFFFFFFFFFFFF65
:102B8000FFFFFFFFFEFCF8F8F8F8F8F0F0F0F0FCBB
:102B9000FEFEFFFFFFFFFFFFFFFFFCF8F000010359
:102BA0000307070F1F3F7F7FFFFFFFFFFFFFFFFFB1
:102BB000FFFF7F7F3F1F1F8F8FCFCFE7F7FFFFFF05
:102BC000FFFFFFFFFFFFFFFFFFFFFF1F1F1F1F0F85
:102BD000070F0F070F07070303070F1F1F0F030739
:102BE00007070F0F070000000000000000000000B2
:102BF0000001010303030101091C9CDCCEC7E7F3BC
:102C00007F3F1F1F3F7F3F1F0703003F7FFFF1CF25
:102C10003F7FFEE0C08000000000000000000000D8
:102C200000000000000000000000000000000000A4
:102C30000000000000000000000000000000000094
:102C40000000000101010100000000000000000080
:102C50000000000000000100000000010101000070
:102C60000000000000000000000000000000000064
:102C700000000000000F0F0F0F0000000000000018
:102C80000000000000000000000000000000000044
:102C900000000000000080C0E0E070787C787AA638
:102CA0005E3E1E1E1C1C1C18181010804040C000E8
:102CB0000000000000000000000000000000000014
:102CC000000000804040C02060E01050E8C89C5CDC
:102CD000DCACAC4C4CA86028C8ECE46AAC8D8D210F
:102CE000686C1DD9D5C55D3DB8D8C894343C9850A2
:102CF00060EC5B1C8E07830000000080C0C0E0F029
:102D0000F0F03018180808000000070206061D1D24
:102D10003FFD795284E9B3D9ECF1FFBF7736C13E6C
:102D200080DEDE405B5B5949C0D7D7B2B0964777AB
:102D300032CC2D15908B4B45A4A4D5D55554D555E3
:102D4000D469ACFAF5941414229449292A2A1C1443
:102D5000000004080C120A0A0907040403060514FB
:102D6000151415151A1D1E1E36205E531909151B44
:102D70001C1E0E0E15151B0B16160D091316160F1D
:102D80000F0F292A3B376343410101000103030769
:102D9000070F0C08080800000000000000000000F9
:102DA0000000000000000000000000000000000023
:102DB0000000000080C0E0F0F0F8FCFEFEFFFFFF26
:102DC000FFFF7F3F3F3E3E3E3CBCF8F8E0E0E0E0E6
:102DD00000000000000000000000000000000000F3
:102DE0000080C0E0E0E0F0F0F0F8F8FCFCFEFEFE51
:102DF000FEFEFEFEFEFEFCFCFEFEFFFFFFFFFFFFF1
:102E0000FFFFFFFFFFFFFFFFFFFCFEFEFEFEFEFCDD
:102E1000FEFFFFFFFFDFCFC78080C0E0E0F0F8F8E3
:102E2000F8F8FCFCBC3C1C1C000F0F0F0F3F3FFFD1
:102E3000FFFFFFFFFFFFFFFFFFFFFFFFFFFFFFFFA2
:102E4000FFFFFFFFFFFFFFFFFFFFFFFFFFFFFFFF92
:102E5000FFFFFFFFFFFFFFFFFFFFFFFFFFFFFFFF82
:102E6000FFFFFFFFFFFFFFFFFFFFFFFF7F7F7F3EB3
:102E70003E0E1E1E3F3F3F1F1F1F0F0F0F0F3F3FF6
:102E80003F3F3F3F3F3F3F7F7FFFFFFFFF3F3F3FD2
:102E90003F3F3F3F3F3F3F3F3F3F3F3F3F3F3F3F42
:102EA0001F7F7F7F7FFFFFF7E7E3030307070F0F16
:102EB0001F1F1F1E1C1C1C000000000000003E5BAA
:102EC0004F5B3E3E6B4F6B3E1C3E7C3E1C183C7E77
:102ED0003C181C577D571C1C5E7F5E1C00183C185C
:102EE00000FFE7C3E7FF0018241800FFE7DBE7FF58
:102EF00030483A060E2629792926407F05050740E5
:102F00007F05253F5A3CE73C5A7F3E1C1C08081CA5
:102F10001C3E7F14227F22145F5F005F5F06097FE3
:102F2000017F006689956A606060606094A2FFA27C
:102F30009408047E040810207E201008082A1C082B
:102F4000081C2A08081E101010100C1E0C1E0C3035
:102F5000383E3830060E3E0E06000000000000002D
:102F60005F00000007000700147F147F14242A7FED
:102F70002A122313086462364956205000080703BA
:102F800000001C2241000041221C002A1C7F1C2A38
:102F900008083E080800807030000808080808008B
:102FA0000060600020100804023E5149453E004286
:102FB0007F400072494949462141494D3318141256
:102FC0007F1027454545393C4A494931412111097E
:102FD000073649494936464949291E000014000070
:102FE000004034000000081422411414141414008A
:102FF0004122140802015909063E415D594E7C12D6
:1030000011127C7F494949363E414141227F41416D
:10301000413E7F494949417F090909013E414151EA
:10302000737F0808087F00417F41002040413F0135
:103030007F081422417F404040407F021C027F7F76
:103040000408107F3E4141413E7F090909063E4187
:1030500051215E7F09192946264949493203017FDA
:1030600001033F4040403F1F2040201F3F40384069
:103070003F631408146303047804036159494D4302
:10308000007F4141410204081020004141417F047A
:103090000201020440404040400003070800205461
:1030A0005478407F284444383844444428384444C1
:1030B000287F385454541800087E090218A4A49C90
:1030C000787F0804047800447D40002040403D00A3
:1030D0007F1028440000417F40007C047804787C05
:1030E000080404783844444438FC1824241818246C
:1030F0002418FC7C08040408485454542404043F55
:1031000044243C4040207C1C2040201C3C4030405B
:103110003C44281028444C9090907C4464544C4487
:103120000008364100000077000000413608000228
:10313000010204023C2623263C1EA1A161123A4052
:1031400040207A38545455592155557941215454C9
:103150007841215554784020545579400C1E5272C4
:1031600012395555555939545454593955545458A0
:103170000000457C410002457D420001457C40F055
:10318000292429F0F0282528F07C545545002054A6
:10319000547C547C0A097F493249494932324848B3
:1031A0004832324A4848303A4141217A3A42402036
:1031B00078009DA0A07D39444444393D4040403DC5
:1031C0003C24FF2424487E4943662B2FFC2F2BFFF1
:1031D0000929F620C0887E09032054547941000053
:1031E000447D413048484A32384040227A007A0AC9
:1031F0000A727D0D19317D2629292F282629292992
:103200002630484D402038080808080808080838C3
:103210002F10C8ACBA2F102834FA00007B00000829
:10322000142A142222142A14089500220095AA00B8
:103230005500AAAA55AA55AA000000FF00101010B8
:10324000FF00141414FF001010FF00FF1010F01006
:10325000F0141414FC001414F700FF0000FF00FF2A
:103260001414F404FC141417101F10101F101F1452
:1032700014141F00101010F0000000001F10101098
:10328000101F10101010F010000000FF1010101090
:103290001010101010FF10000000FF140000FF00BD
:1032A000FF00001F10170000FC04F414141710177F
:1032B0001414F404F40000FF00F71414141414148C
:1032C00014F700F7141414171410101F101F1414FF
:1032D00014F4141010F010F000001F101F00000074
:1032E0001F14000000FC140000F010F01010FF107C
:1032F000FF141414FF141010101F00000000F01031
:10330000FFFFFFFFFFF0F0F0F0F0FFFFFF00000015
:103310000000FFFF0F0F0F0F0F38444438447C2A82
:103320002A3E147E02020606027E027E0263554990
:1033300041633844443C04407E201E2006027E0245
:103340000299A5E7A5991C2A492A1C4C7201724CC6
:10335000304A4D4D303048784830BC625A463D3E88
:10336000494949007E0101017E2A2A2A2A2A444429
:103370005F444440514A444040444A51400000FFA9
:103380000103E080FF000008086B6B08361236244A
:1033900036060F090F060000181800000010100074
:1033A0003040FF0101001F01011E00191D1712000E
:1033B0003C3C3C3C0000000000080B000202020103
:1033C00000090400000102020000052400100105AC
:1033D00024010101042402060524060001070581D9
:1033E0000310004009040100020A00000007050262
:1033F0000240000007058302400000040309041294
:10340000010002EF02014041233680000101020366
:103410000141726475696E6F204C4C4300417264C7
:1034200075696E6F204C656F6E6172646F00C33595
:1034300011241FBECFEFDAE0DEBFCDBF12E0A0E067
:10344000B1E0EAEBFEE602C005900D92A433B107AD
:10345000D9F727E0A4E3B2E001C01D92A330B20780
:10346000E1F71AE1C8E1DAE104C02197FE010E9408
:103470005037C731D107C9F70E94432B0C945B37F3
:103480000C940000CF92DF92EF92FF920F931F9364
:10349000CF93DF936C017A018B01C0E0D0E0CE15B1
:1034A000DF0581F0D8016D918D01D601ED91FC9180
:1034B0000190F081E02DC6010995892B11F021962C
:1034C000EECF7E01C701DF91CF911F910F91FF9049
:1034D000EF90DF90CF90089590E1282F81E061FD7B
:1034E00084E060FD880F62FD8295687F969FD00121
:1034F0001124A20FA659BD4F9C91982B40FF9827ED
:103500009C9308952F923F924F925F926F927F9279
:103510008F929F92AF92BF92CF92DF92EF92FF92E3
:103520000F931F93CF93DF93CDB7DEB727970FB6D7
:10353000F894DEBF0FBECDBF9F838E836A30A1F4A7
:10354000DC0155962C91559751968D919C915297EF
:10355000B8E02B9F800D911D1124EE81FF81928B8D
:10356000818B108A1786B5C06D3009F4B2C0AE8168
:10357000BF811F960D911C91509700381105BCF02A
:10358000EE81FF812589422F50E087859089F6E002
:103590002F9F800D911D1124AE81BF8150969C9369
:1035A0008E931F9756962C9121117DC092C0EE816B
:1035B000FF8181889288F0E48F1691040CF7AE8128
:1035C000BF8155963C90C801B5E03B9E800D911D92
:1035D000112418161906A4F6432C512CC401E8E056
:1035E0003E9E800D911D1124181619064CF6AE81D1
:1035F000BF815496BC91BC83EE81FF81F389FD832A
:1036000025E0629FB0011124CB018754914D3C010C
:103610001982F3012490F981F53009F4212C540129
:1036200028E02B8320FE03C03D813A8302C08C81B9
:103630008A839A81911104C0AC81BD81AB17F9F0E6
:1036400078018E2D801B8315D0F465018C2D8A198D
:10365000831588F4E0E8EE16F10448F4F0E4CF16A0
:10366000D10428F44A81B601C7010E946C1A2FEFD9
:10367000C21AD20AEBCF3FEFE31AF30AE2CF269445
:103680008B8181508B83A40CB51C8111CBCF998188
:103690009F5F9983040D151DD30111963D0196304E
:1036A00009F0B7CF6DCF6AEF64039001659F300DCD
:1036B000112420583F4F281739075CF4AE81BF8191
:1036C000ED91FC9111970190F081E02D6AE0CD0120
:1036D000099581E090E027960FB6F894DEBF0FBE03
:1036E000CDBFDF91CF911F910F91FF90EF90DF90B1
:1036F000CF90BF90AF909F908F907F906F905F9092
:103700004F903F902F9008950895089580E090E0A5
:1037100008950E9456372D9A0895BC0180E090E0EC
:103720000C94142A8FB18095807F669B88601C9BC7
:10373000846008950C94D73680E00C94E9262F928B
:103740003F924F925F926F927F928F929F92AF9231
:10375000BF92CF92DF92EF92FF920F931F93CF937E
:10376000DF93CDB7DEB760970FB6F894DEBF0FBE1C
:10377000CDBFEB82E22EF12CF88AEF869701280F5D
:10378000391F37FD3CC1803891050CF038C19B01D1
:10379000200F311D37FD33C1603471050CF02FC18E
:1037A000DB0177FF04C0AA27BB27A61BB70BA770B6
:1037B000BB279B0177FF02C0295F3F4FE3E03595B0
:1037C0002795EA95E1F777FF08C02150310968E0B5
:1037D00070E0FB01EA1BFB0BDF01E02FE695E695AD
:1037E000E695F0E0077009F03196B9017695762FED
:1037F000662777956795680F791F66597D4F7F011A
:10380000E20EF31EFF82EE82C12CD12CE8E0F0E044
:103810008F010A1B1B0B1D830C83EE80FF80E216B9
:10382000F30609F4ECC02830310509F4E8C02F3F55
:103830000FEF30070CF4D6C08B0100581F4F1987CB
:1038400008875B014B013B012C0118011A83098396
:1038500000E010E0EF84F8880E151F050CF0C2C0E0
:10386000E0E84E16510409F4BDC057FC9FC02F3F3D
:10387000FFEF3F0709F4BFC07801EC0CFD1CEB81A2
:10388000E130A9F4F701E40FF51FE491EE2EF12CDD
:10389000F7010A2E02C0EE0FFF1F0A94E2F7FB8722
:1038A000EA87F401E080FA85EF2AF4012CC0FB815D
:1038B000F11116C0F701E40FF51FE491F0E00A2EB4
:1038C00002C0EE0FFF1F0A94E2F77F01E094F0942C
:1038D000FB86EA86F501E080FA85EF22F50113C048
:1038E000F701E40FF51FE491F0E07F010A2E02C01A
:1038F000EE0CFF1C0A94E2F7FB86EA86F301E080F7
:10390000FA85EF26F301E082109709F44FC02730C3
:10391000310509F44BC07801EC0CFD1CFB81F13042
:10392000B1F4F701E40FF51FE491F0E07F010C80A2
:1039300002C0F594E7940A94E2F7FB86EA86E885EC
:10394000F985E080FA85EF2AE885F9852EC0FB81AC
:10395000F11118C0F701E40FF51FE491F0E00C80BD
:1039600002C0F595E7950A94E2F77F01E094F094A0
:10397000FB86EA86E981FA81E080FA85EF22E98117
:10398000FA8113C0F701E40FF51FE491F0E07F0125
:103990000C8002C0F594E7940A94E2F7FB86EA866D
:1039A000F101E080FA85EF26F101E0820F5F1F4F01
:1039B000E885F9853196F987E887E981FA813196BA
:1039C000FA83E983FFEF2F1A3F0AEFEF4E1A5E0AE0
:1039D000FFEF6F1A7F0AEFEF8E1A9E0AFFEFAF1A02
:1039E000BF0A38CF2F5F3F4F60587F4FEF84F88872
:1039F000CE0CDF1C12CF109709F08DCFD7CF609679
:103A00000FB6F894DEBF0FBECDBFDF91CF911F91EF
:103A10000F91FF90EF90DF90CF90BF90AF909F906D
:103A20008F907F906F905F904F903F902F90089570
:103A3000EF920F938091220190912301019709F059
:103A40006AC06091240170912501E12C00E228E414
:103A500049E95DE280912601909127010E949F1B18
:103A60006091240170912501EE24E39428E449E754
:103A70005CE280912601909127010E949F1B60913A
:103A80007406709175066F5E7F4F04E024E045E791
:103A90005CE280917E0690917F060E949F1B609160
:103AA0007206709173066F5E7F4F24E045E75CE21B
:103AB00080917C0690917D060E949F1B609170060C
:103AC000709171066F5E7F4F24E045E75CE2809164
:103AD0007A0690917B060E949F1B60916E06709102
:103AE0006F066F5E7F4F24E045E75CE280917806C9
:103AF000909179060E949F1B60916C0670916D06F3
:103B00006F5E7F4F24E045E75CE2809176069091FE
:103B100077060E949F1B80912201909123010297BA
:103B200009F06AC06091240170912501E12C09E23D
:103B300028E445EC5AE280912601909127010E94E9
:103B40009F1B6091240170912501EE24E39428E4E9
:103B500045E159E280912601909127010E949F1B27
:103B600060917406709175066B5E7F4F04E024E0EF
:103B700045E75CE280917E0690917F060E949F1B44
:103B800060917206709173066B5E7F4F24E045E78B
:103B90005CE280917C0690917D060E949F1B609163
:103BA0007006709171066B5E7F4F24E045E75CE222
:103BB00080917A0690917B060E949F1B60916E0611
:103BC00070916F066B5E7F4F24E045E75CE2809169
:103BD0007806909179060E949F1B60916C06709107
:103BE0006D066B5E7F4F24E045E75CE280917606D0
:103BF000909177060E949F1B809122019091230152
:103C0000039709F06AC06091240170912501E12CAD
:103C100001E228E44DEA57E28091260190912701C4
:103C20000E949F1B6091240170912501EE24E39472
:103C300028E445E456E280912601909127010E94F4
:103C40009F1B60917406709175066F5E7F4F04E054
:103C500024E045E75CE280917E0690917F060E9419
:103C60009F1B60917206709173066F5E7F4F24E018
:103C700045E75CE280917C0690917D060E949F1B47
:103C800060917006709171066F5E7F4F24E045E78A
:103C90005CE280917A0690917B060E949F1B609166
:103CA0006E0670916F066F5E7F4F24E045E75CE221
:103CB00080917806909179060E949F1B60916C0616
:103CC00070916D066F5E7F4F24E045E75CE2809166
:103CD0007606909177060E949F1B0F91EF900895B2
:103CE000609165027091660262507109709366027C
:103CF0006093650220911401309115012250310921
:103D00003093150120931401409163025091640295
:103D10004250510950936402409363028091120112
:103D200090911301029790931301809312016138CF
:103D30007F4F1CF041385F4F44F41092660210929E
:103D400065021092640210926302121613061CF4AC
:103D50001816190654F080E890E0909315018093AE
:103D6000140190931301809312012091610230910C
:103D700062022150310930936202209361028091E6
:103D800010019091110101979093110180931001FE
:103D900021383F4F24F410926202109261021816EB
:103DA000190634F080E890E090931101809310019F
:103DB00080915F02909160020196909360028093DF
:103DC0005F028430910539F481E090E090935E02C7
:103DD00080935D020895089744F01092600210925B
:103DE0005F0210925E0210925D020895EF92FF92C0
:103DF0000F931F93CF93DF9380915D0290915E02AA
:103E00000097C9F46091040170910501E12C0BE069
:103E100020E145E056E280910601909107010E9461
:103E20009F1B6091040170910501EE24E39420E151
:103E300045EC55E21AC00197F1F4609104017091CC
:103E40000501E12C0BE020E145E256E280910601FC
:103E5000909107010E949F1B6091040170910501E0
:103E6000EE24E39420E145EE55E280910601909125
:103E700007010E949F1BE0900201F0900301C0E047
:103E8000D0E0FF24CE15DF058CF40BE310E0C03842
:103E9000D1052CF441E0B801CE010E946C1A0F5FED
:103EA0001F4F0034110599F72196ECCF80915B02EA
:103EB00090915C02019759F58091400290914102E6
:103EC0009C012A5F3F4F3093410220934002609152
:103ED0003E0270913F026F5F7F4FE12C09E027E0C7
:103EE00047EB55E20E960E949F1B60913E02709137
:103EF0003F026F5F7F4F8091400290914102EE241C
:103F0000E39427E049EA55E208960E949F1BDF915F
:103F1000CF911F910F91FF90EF900895EF920F9323
:103F2000CF93DF938091000190910101019709F0F7
:103F3000A4C08091220190912301019709F09DC0B6
:103F400060910E0170910F01685E7F4FEE24E39443
:103F500008E020E849E255E280E090E00E949F1BE3
:103F6000C0911001D0911101E12C0FE220E849E24B
:103F700052E268E070E0CE010E949F1BEE24E394C1
:103F800020E849E25FE168E070E0CE010E949F1BFB
:103F9000C0916102D0916202E12C20E849E252E234
:103FA00068E070E0CE010E949F1BEE24E39420E8BD
:103FB00049E25FE168E070E0CE010E949F1BC09182
:103FC0001401D0911501E12C09E020E849E25EE1FD
:103FD00068E070E0CE010E949F1BEE24E39420E88D
:103FE00049E25DE168E070E0CE010E949F1BC09154
:103FF0006502D0916602E12C20E849E25EE168E0CA
:1040000070E0CE010E949F1BEE24E39420E849E279
:104010005DE168E070E0CE010E949F1BC09112013B
:10402000D0911301E12C0AE020E849E25CE16EE264
:1040300070E0CE010E949F1BEE24E39420E849E249
:104040005BE16EE270E0CE010E949F1BC0916302B3
:10405000D0916402E12C20E849E25CE16EE270E07C
:10406000CE010E949F1BEE24E39420E849E25BE12D
:104070006EE270E0CE010E949F1B80910001909142
:104080000101019709F065C08091220190912301FF
:10409000029709F05EC0C0911001D0911101E12C8E
:1040A0000FE220E849E258E168E070E0CE010E94AA
:1040B0009F1BEE24E39420E849E255E168E070E0BC
:1040C000CE010E949F1BC0916102D0916202E12C3F
:1040D00020E849E258E168E070E0CE010E949F1BB1
:1040E000EE24E39420E849E255E168E070E0CE0177
:1040F0000E949F1BC0911201D0911301E12C0DE091
:1041000020E849E254E16BE270E0CE010E949F1B7F
:10411000EE24E39420E849E253E16BE270E0CE0143
:104120000E949F1BC0916302D0916402E12C20E8A1
:1041300049E254E16BE270E0CE010E949F1BEE2445
:10414000E39420E849E253E16BE270E0CE010E9483
:104150009F1B8091000190910101019709F065C0BA
:104160008091220190912301039709F05EC0C091D4
:104170001001D0911101E12C0FE220E849E258E151
:1041800068E070E0CE010E949F1BEE24E39420E8DB
:1041900049E250E168E070E0CE010E949F1BC091AF
:1041A0006102D0916202E12C20E849E258E168E026
:1041B00070E0CE010E949F1BEE24E39420E849E2C8
:1041C00050E168E070E0CE010E949F1BC091120197
:1041D000D0911301E12C0DE020E849E254E16BE2BB
:1041E00070E0CE010E949F1BEE24E39420E849E298
:1041F00053E16BE270E0CE010E949F1BC09163020D
:10420000D0916402E12C20E849E254E16BE270E0D5
:10421000CE010E949F1BEE24E39420E849E253E183
:104220006BE270E0CE010E949F1B80910001909193
:104230000101029709F076C0EE24E39409E220E838
:1042400049E25DE06BE070E0809110019091110116
:104250000E949F1B20E849E25DE06BE070E08091E6
:104260006102909162020E949F1BC0911401D09143
:104270001501E12C08E020E849EA5CE068E070E024
:10428000CE010E949F1BEE24E39420E849E25CE00B
:1042900068E070E0CE010E949F1BC0916502D09142
:1042A0006602E12C20E849EA5CE068E070E0CE01BB
:1042B0000E949F1BEE24E39420E849E25CE068E062
:1042C00070E0CE010E949F1BC0911201D09113019A
:1042D000E12C20E849EA5BE060E370E0CE010E9457
:1042E0009F1BEE24E39420E849E25BE060E370E08A
:1042F000CE010E949F1BC0916302D0916402E12C09
:1043000020E849EA5BE060E370E0CE010E949F1B79
:10431000EE24E39420E849E25BE060E370E0CE0144
:104320000E949F1B80914A0290914B02019709F0D5
:1043300097C0E12C08E02EE94BE85AE068E070E015
:1043400080910C0190910D010E949F1BEE24E3943B
:104350002EE94DEE59E068E070E080910C019091FB
:104360000D010E949F1BE12C2EE94BE85AE060E111
:1043700070E080910C0190910D010E949F1BEE2432
:10438000E3942EE94DEE59E060E170E080910C017C
:1043900090910D010E949F1BE12C2EE94BE85AE001
:1043A00068E170E080910C0190910D010E949F1BCB
:1043B000EE24E3942EE94DEE59E068E170E080913F
:1043C0000C0190910D010E949F1BE12C2EE94BE8FE
:1043D0005AE060E270E080910C0190910D010E9422
:1043E0009F1BEE24E3942EE94DEE59E060E270E06D
:1043F00080910C0190910D010E949F1BE12C2EE9F0
:104400004BE85AE068E270E080910C0190910D0158
:104410000E949F1BEE24E3942EE94DEE59E068E2E2
:1044200070E080910C0190910D010E949F1BE12C86
:104430002EE94BE85AE060E370E080910C01909126
:104440000D010E949F1BEE24E3942EE94DEE59E0EE
:1044500060E370E080910C0190910D010E949F1B20
:1044600080914A0290914B02029709F0AFC080916F
:104470000C0190910D01E12C08E02EE94FE459E088
:1044800068E070E0805891090E949F1B80910C01A8
:1044900090910D01EE24E3942EE941EB58E068E0A1
:1044A00070E0805891090E949F1B80910C019091AF
:1044B0000D01E12C2EE94FE459E060E170E08058F5
:1044C00091090E949F1B80910C0190910D01EE2497
:1044D000E3942EE941EB58E060E170E080589109E7
:1044E0000E949F1B80910C0190910D01E12C2EE9FF
:1044F0004FE459E068E170E0805891090E949F1BE9
:1045000080910C0190910D01EE24E3942EE941EB92
:1045100058E068E170E0805891090E949F1B8091EB
:104520000C0190910D01E12C2EE94FE459E060E27D
:1045300070E0805891090E949F1B80910C0190911E
:104540000D01EE24E3942EE941EB58E060E270E0C7
:10455000805891090E949F1B80910C0190910D0140
:10456000E12C2EE94FE459E068E270E080589109AF
:104570000E949F1B80910C0190910D01EE24E39409
:104580002EE941EB58E068E270E0805891090E9402
:104590009F1B80910C0190910D01E12C2EE94FE4BD
:1045A00059E060E370E0805891090E949F1B809160
:1045B0000C0190910D01EE24E3942EE941EB58E0BB
:1045C00060E370E0805891090E949F1BDF91CF91BA
:1045D0000F91EF9008950E94921B85FF09C0809172
:1045E00006019091070102979093070180930601BD
:1045F0000E94921B86FF09C08091060190910701DD
:10460000029690930701809306010E94921B87FFF8
:1046100012C08091040190910501029790930501C9
:104620008093040180910E0190910F010196909367
:104630000F0180930E010E94921B84FF12C0809193
:104640000401909105010296909305018093040165
:1046500080910E0190910F01019790930F0180932B
:104660000E010E94921B83FF07C080915902909116
:104670005A02892B09F457C00E94921B83FD0BC07C
:1046800080914002909141028038910524F010926F
:104690005A02109259028091060190910701181652
:1046A000190624F01092070110920601809106016C
:1046B000909107018035910534F080E590E090936A
:1046C00007018093060180910401909105010A97EA
:1046D00034F489E090E09093050180930401809187
:1046E0000401909105018C9734F08CE290E0909356
:1046F00005018093040180910E0190910F0118161D
:10470000190624F010920F0110920E0180910E01F3
:1047100090910F010897ACF188E090E090930F0121
:1047200080930E01089581E090E090935C02809365
:104730005B0290935A028093590210924E0280E4D9
:104740008093900087EE93E0909399008093980077
:104750008EE190E00E948D1B10924E02109290000C
:10476000809106019091070190934102809340024D
:10477000809104019091050190933F0280933E0245
:104780007BCF08950E94921B83FF04C010925002B9
:1047900010924F020895EF920F9380912201909111
:1047A0002301019771F483E390E090939006809346
:1047B0008F06109292061092910687EF91E00E9468
:1047C000D4268091220190912301029771F483E312
:1047D00090E09093900680938F061092920610922C
:1047E00091068BEF91E00E94D42680912201909156
:1047F0002301039771F483E390E0909390068093F4
:104800008F0610929206109291068FEF91E00E940F
:10481000D42685E490E09093900680938F061092C2
:1048200092061092910683E092E00E94D4268AE5D7
:1048300090E09093900680938F06109292061092CB
:104840009106E12C07E023E34EE758E060E070E0DA
:1048500080E090E00E949F1BEE24E39423E34BE46E
:1048600058E060E070E080E090E00E949F1B809143
:104870003C0290913D020F91EF900C945A2783E3F4
:1048800090E09093900680938F061092920610927B
:10489000910687E092E00E94D4268AE590E090930A
:1048A000900680938F061092920610929106609166
:1048B000340270913502072E000C880B990B97FD7E
:1048C0000C9439274AE00C94F82610924D0210926D
:1048D0004C02109266021092650280E890E090937C
:1048E0001501809314011092640210926302909358
:1048F0001301809312011092620210926102909350
:104900001101809310012EE130E0309307012093D4
:10491000060129E130E0309305012093040124E0F1
:1049200030E030930F0120930E0110925E0210923E
:104930005D0210924B0210924A0290930D018093F7
:104940000C0110925C0210925B0221E030E0309387
:1049500001012093000190932701809326012AE012
:1049600030E03093250120932401109237021092F9
:104970003602109245021092440290937F06809373
:104980007E0690937D0680937C0690937B068093B1
:104990007A069093790680937806909377068093B1
:1049A0007606309375062093740630937306209331
:1049B0007206309371062093700630936F06209331
:1049C0006E0630936D0620936C0610923902109299
:1049D000380210923B0210923A0210924902109251
:1049E000480210924702109246023093030120932E
:1049F0000201609122017091230148EE53E0649F0F
:104A00009001659F300D749F300D112430936B061B
:104A100020936A0610925A02109259029093430210
:104A20008093420290930B0180930A0180E290E010
:104A3000909309018093080108958091220190913B
:104A40002301019771F480E290E0909390068093A7
:104A50008F0690939206809391068EE092E00E94DA
:104A6000D4268091220190912301029771F480E273
:104A700090E09093900680938F0690939206809397
:104A800091068AE192E00E94D426809122019091C1
:104A90002301039771F480E290E090939006809355
:104AA0008F06909392068093910686E292E00C9492
:104AB000D426089520916902211103C08FEF9FEF42
:104AC00008955FB7F89422E02093E9002091F20066
:104AD00030E01216130614F421E030E0422FFC01FE
:104AE00084E6415038F028988093A9069091F1000F
:104AF0009193F7CF2115310521F08091F2008823A1
:104B000019F05FBFC90108958BE68093E800F9CFE3
:104B10002FB7F89483E08093E9009091E800892F03
:104B2000807295FF04C09091F20080E4891B2FBF32
:104B300008958091A10681110DC082E080939D06A9
:104B400084E080939E061092A00610929F0681E05A
:104B50008093A1068DE996E00895CF93DF931F928D
:104B6000CDB7DEB76983DC01ED91FC910280F38162
:104B7000E02D41E050E0BE016F5F7F4F09950F903F
:104B8000DF91CF91089583E08093E9008091F20056
:104B9000882319F08AE38093E80008950E9488250D
:104BA00090E00895CF93DF931F92CDB7DEB7FC015D
:104BB0008485958597FD05C02FEF3FEF35872487C6
:104BC0000BC0CE0101960E945A25019719F48981E4
:104BD00090E002C08FEF9FEF0F90DF91CF9108958B
:104BE0000F931F93CF93DF931F92CDB7DEB78C0146
:104BF000FC018485958597FF0EC0CE0101960E9429
:104C00005A25019719F4898190E002C08FEF9FEF38
:104C1000F80195878487F801848595850F90DF9149
:104C2000CF911F910F910895FC018485958597FD83
:104C30000BC09FB7F89482E08093E9008091F20066
:104C40009FBF90E0019608959FB7F89482E080930B
:104C5000E9008091F2009FBF90E00895409199068D
:104C600050919A0620919706309198064217530763
:104C7000B4F49091E8009570E1F39091E80092FD12
:104C800019C08093F1008091990690919A0601963F
:104C90008F739927892B19F48EEF8093E800809108
:104CA000990690919A06019690939A068093990698
:104CB00081E0089580E00895DF92EF92FF920F93D4
:104CC0001F93CF93DF93D82E8A017B01E40EF51E4C
:104CD000EB01CE15DF0571F0D7FE03C0FE01849114
:104CE00001C088810E942E2621968111F2CF8FEF7C
:104CF0009FEF01C0C801DF91CF911F910F91FF90ED
:104D0000EF90DF9008950F931F93CF93DF931F923F
:104D1000CDB7DEB782E0898342E450E069EB73E30C
:104D200080E80E945C260E949925DC0112960D9174
:104D30001C9113970115110589F0D801ED91FC9193
:104D40000280F381E02DBE016F5F7F4FC80109959E
:104D500097FD04C0F80100851185ECCF89810F9083
:104D6000DF91CF911F910F910895615030F0209104
:104D7000F100FC0120830196F8CF289884E6809307
:104D8000A9060895009769F0FC0101900020E9F759
:104D90003197AF01481B590BBC0180E896E00C9499
:104DA000421A80E090E008950C94C22680E0EAE682
:104DB000F2E081118FEF002481938193819381939D
:104DC0000394D1F7E0E8F6E0128A118A108A178678
:104DD0000895EAE6F2E0A0E0B8E000800EBC8111A0
:104DE000012C1197A0FDFDCF0192B9F70DB40895E4
:104DF0008F929F92AF92BF920F931F93CF93DF93A7
:104E0000CDB7DEB7A1970FB6F894DEBF0FBECDBF0A
:104E100019A2423008F44AE08E010F5D1F4F842E24
:104E2000912CA12CB12CA50194010E941F37E62FD3
:104E3000B901CA0101501109EA3014F4E05D01C062
:104E4000E95CD801EC93232B242B252B61F7C801B7
:104E50000E94C226A1960FB6F894DEBF0FBECDBF4A
:104E6000DF91CF911F910F91BF90AF909F908F9046
:104E70000895CF92DF92EF92FF92CF93DF936B0171
:104E80007C016DE280E896E00E94821AEC016627C0
:104E90007727CB016C197D098E099F094AE00E9492
:104EA000F8268C0F9D1FDF91CF91FF90EF90DF9040
:104EB000CF900895BC01990F880B990B97FD0C9426
:104EC00039274AE00C94F8261F920F920FB60F92E2
:104ED00011248F939F938091E1009091E100937F43
:104EE0009093E10083FF0FC01092E90091E090934E
:104EF000EB001092EC0092E39093ED0010926902A7
:104F000098E09093F00082FF20C093E09093E90036
:104F10009091F200992319F09AE39093E800909110
:104F20009C06992339F090919C06915090939C0691
:104F3000992389F19091A906992339F09091A906B6
:104F400091509093A906992341F184FF10C080915C
:104F5000E2008E7E81608093E2008091E1008F7E8E
:104F60008093E100809168028E7E806111C080FF95
:104F700016C08091E2008E7E80618093E200809175
:104F8000E1008E7E8093E100809168028E7E8160D8
:104F90008093680204C05D9ACDCF289AD6CF9F91A6
:104FA0008F910F900FBE0F901F9018951F920F9228
:104FB0000FB60F921124CF92DF92EF92FF920F93D0
:104FC0001F932F933F934F935F936F937F938F9391
:104FD0009F93AF93BF93EF93FF93CF93DF93CDB79F
:104FE000DEB76C97DEBFCDBF1092E9008091E8007C
:104FF00083FFFBC168E0CE0145960E94B52682EF93
:105000008093E8008D8987FF05C09091E80090FFAC
:10501000FCCF03C09EEF9093E800982F907609F0A4
:10502000C6C09E894F89588D2F89F88C91110CC06C
:10503000803829F4809167028093F10002C01092B9
:10504000F1001092F10045C1913051F4811141C13C
:105050004130510509F03DC1809167028D7F0BC041
:10506000933061F4811135C14130510509F031C1EE
:10507000809167028260809367022BC1953049F46A
:105080008091E80080FFFCCF822F80688093E3004E
:1050900020C1963009F05EC00B8D1C8D22E010926D
:1050A000E90010929A0610929906F21232C01092FC
:1050B0009806109297060E94832699E0BE016F5FC2
:1050C0007F4FDB01E92F1D92EA95E9F79983FA8278
:1050D00091E09E8390EA98879AEF998720919906AC
:1050E00030919A06275F3F4F3C832B838D8310922C
:1050F000E90010929A061092990610939806009370
:10510000970649E050E080E00E945C260E948326DA
:10511000E0C010939806009397060E949925DC0141
:1051200012960D911C9113970115110509F4BBC03E
:10513000D801ED91FC910480F581E02DBE016B5EFC
:105140007F4FC8010995009709F0C7C0F801008595
:105150001185EACF973009F445C1983021F481E0F8
:105160008093F100B6C0993009F0B3C0837009F0A4
:1051700039C1EDE2F1E081E031E096E320812111D7
:1051800009C08EE78093EA001092EA008F8980932D
:1051900069029FC08093E9003093EB002191209336
:1051A000EC009093ED008F5F873041F7EACF8B8D55
:1051B0009C8D1092E90010929A0610929906909395
:1051C000980680939706898D811153C08E899D8999
:1051D000913A49F4813209F005C147E050E06AE1B3
:1051E00071E080E0BBC0913209F0FCC0833269F409
:1051F0008F89988DA0E0B0E08093160190931701FD
:10520000A0931801B093190164C0803269F48091B1
:10521000E80082FFFCCF67E08AE191E00E94B526BA
:105220008BEF8093E80055C0823209F052C08F891D
:1052300080932101EEEFFFE7859194918B3F9C4D88
:1052400019F0E0E0F8E002C0EEEFFAE080911A0118
:1052500090911B01A0911C01B0911D01803B9440D5
:10526000A105B10509F09EC08091210180FF79C0A0
:1052700099C00E949925FC01028113810115110535
:1052800009F4B0C0D801ED91FC910190F081E02DBE
:10529000BE016B5E7F4FC801099581111AC0F801EC
:1052A00000851185EBCFF1E0FF1609F44EC0F3E065
:1052B000FF1298C08F89882309F44AC0823089F48C
:1052C00040E860E18DE194E30E948E35882309F483
:1052D00089C08EEF8093E80088C018161906CCF3B9
:1052E00081C0813029F440E86BE081E194E3ECCFA8
:1052F000833009F077C00E949925DC011296ED9069
:10530000FC9013978E010F5F1F4F6801E114F104A9
:1053100079F0D701ED91FC910680F781E02DB8017D
:10532000C7010995080F111DF701E084F184EECF44
:10533000D8011C92F60101900020E9F73197BF01D6
:105340006C197D0940E0C601BFCF6FEF73E302C067
:105350006BEF73E3FB01449150E080E80E945C2610
:10536000B8CFEE3F2AE0F20751F080819181873774
:10537000A7E79A0721F09093FF0A8093FE0A87E738
:1053800097E7918380838091600080939B069BE0E8
:1053900088E10FB6F894A895809360000FBE9093B3
:1053A000600097CF808191818737974709F091CF2F
:1053B000A8958091600088618093600080919B0631
:1053C00080936000EE3FBAE0FB0739F08091FE0A5F
:1053D0009091FF0A918380837CCF1092FF0A1092F4
:1053E000FE0A77CF81E28093EB006C960FB6F894BB
:1053F000DEBF0FBECDBFDF91CF91FF91EF91BF9187
:10540000AF919F918F917F916F915F914F913F915C
:105410002F911F910F91FF90EF90DF90CF900F9001
:105420000FBE0F901F9018958F929F92AF92BF92D0
:10543000CF92DF92EF92FF926B017C010E94D42AFF
:105440004B015C01C114D104E104F104F1F00E94AC
:10545000D42ADC01CB0188199909AA09BB09883E25
:105460009340A105B10570F321E0C21AD108E1080B
:10547000F10888EE880E83E0981EA11CB11CC114AF
:10548000D104E104F10419F7DDCFFF90EF90DF9034
:10549000CF90BF90AF909F908F9008958F929F92E2
:1054A000AF92BF92CF92DF92EF92FF920F931F9332
:1054B000CF93DF936C017B018A01809121018823C6
:1054C00009F45CC080916902882309F457C0809177
:1054D000680280FF05C08091E00082608093E00058
:1054E000E801B12C8AEFA82E93E0892E2AE3922EB0
:1054F000209711F4BB20D9F10E94882581110AC0A0
:10550000AA94AA20D9F161E070E080E090E00E94C6
:10551000142AEECF282F30E0C217D3070CF48C2FBB
:105520009FB7F8948092E9002091E80025FF1DC004
:10553000282F30E0C21BD30BF701815020F041919E
:105540004093F100FACFE20EF31EBB2019F09092C7
:10555000E8000AC08091E80085FD07C09092E8004D
:10556000BB24B394209709F0B12C9FBFC1CF5D98A5
:1055700084E680939C061016110644F081E090E0CA
:10558000F6019383828380E090E001C0C801DF913F
:10559000CF911F910F91FF90EF90DF90CF90BF9030
:1055A000AF909F908F9008953FB7F8948091FF0639
:1055B00090910007A0910107B091020726B5A89B22
:1055C00005C02F3F19F00196A11DB11D3FBFBA2F95
:1055D000A92F982F8827820F911DA11DB11DBC01F5
:1055E000CD0142E0660F771F881F991F4A95D1F7BA
:1055F00008951F920F920FB60F9211242F933F938D
:105600008F939F93AF93BF938091FA069091FB067F
:10561000A091FC06B091FD063091FE0623E0230F19
:105620002D3720F40196A11DB11D05C026E8230FDA
:105630000296A11DB11D2093FE068093FA06909359
:10564000FB06A093FC06B093FD068091FF069091A7
:105650000007A0910107B09102070196A11DB11D9D
:105660008093FF0690930007A0930107B093020771
:10567000BF91AF919F918F913F912F910F900FBE4E
:105680000F901F901895CF93DF9300D0CDB7DEB762
:10569000789484B5826084BD84B5816084BD85B50D
:1056A000826085BD85B5816085BD80916E00816019
:1056B00080936E00109281008091810082608093BF
:1056C00081008091810081608093810080918000C1
:1056D000816080938000809191008260809391002E
:1056E0008091910081608093910080919000816011
:1056F000809390008091C10084608093C10080916C
:10570000C10082608093C1008091C100816080935C
:10571000C1008091C30081608093C3008091C0006C
:1057200082608093C0008091C20081608093C2003B
:1057300080917A00846080937A0080917A00826000
:1057400080937A0080917A00816080937A008091C2
:105750007A00806880937A00109269021092670242
:10576000109268028091D70081608093D70080EA10
:105770008093D80089B5806189BD89B5826089BD73
:1057800009B400FEFDCF61E070E080E090E00E948F
:10579000142A8091D8008F7C80618093D8008091FA
:1057A000E000807F8093E0008091E1008E7E809316
:1057B000E1008DE08093E200559A209A81EC80937D
:1057C0007C0085B1806F85B984B1877E84B984B14E
:1057D000876E84B95E9A5F988AB1806D8AB9769A2D
:1057E0006E9881B3806F81BB899880B38D7080BBC8
:1057F00080E58CBD81E08DBD85E090E00E948D1B31
:105800005F9A85E090E00E948D1B5E985C98EEE6C2
:10581000F1E084918EBD00000DB407FEFDCF3196FE
:1058200021E0EB37F207A9F75C9A81E880936400E6
:105830008091650081608093650084E896E00E9415
:105840009C1B0E94921B87FF24C05C9885EA8EBD3A
:1058500000000DB407FEFDCF5C9A2E982F982D986E
:105860008091640080628093640081E083BF8895AA
:1058700013BEFCCF2D980E94921B8478843871F05F
:105880000E94921B8471843131F188EC90E00E9477
:105890008D1B0E94921B82FDEDCF3AC00E948B1B94
:1058A00088EC90E00E948D1B2F9882E090E00E948F
:1058B000D7368F3F29F06FEF82E090E00E94DF360D
:1058C00084EF91E00E948D1B2F9A0E94921B847896
:1058D0008438D9F3D5CF0E948B1B88EC90E00E94CE
:1058E0008D1B2E9882E090E00E94D736882329F005
:1058F00060E082E090E00E94DF3684EF91E00E9459
:105900008D1B2E9A0E94921B84718431D9F3BDCFD6
:105910000E948B1B82E090E00E949A1B882319F062
:105920003E9A3F9A02C03E983F9881E090E00E94E4
:105930009A1B182F147081FF43C011112E9880EF0D
:105940009FEF9A8389830E94921B86FF05C02E9A3F
:105950002F9A0E948B1B34C0112331F089819A81C8
:10596000049711F42E9A2F9881E00E94E926EE24E4
:10597000E39400E128E54EEB50E069817A8184E10F
:1059800090E00E949F1B84E896E00E949C1B8FE0A1
:1059900090E00E948D1B89819A8101969A83898368
:1059A000499789F6112311F02F9A2D9880E991E0FB
:1059B0000E948D1B0E948B1B80E896E00E944D3553
:1059C00082E390E00E948D1B0E94921B8111F8CF10
:1059D0000E94D62684E180938B06109290008AE084
:1059E000809391002EE1222E312C3AE0432E512C4F
:1059F00080E2A82EB12C98E2692E712C0E94D62646
:105A00008FB7F8944091FA065091FB066091FC061E
:105A10007091FD068FBF80918C06942F981B892F63
:105A200090918D06992329F080938E0610928D0611
:105A30007BC790918B06891748F48F5F891708F010
:105A400073C781E083BF889513BE6EC781E08093E2
:105A50008D0640938C06809187069091880601966A
:105A6000909388068093870680914E02882331F0B8
:105A7000815080934E02882309F45EC7E0914F0263
:105A8000F0915002E930F10508F04EC7EA5AFF4F95
:105A90000C94503780914C0290914D020196909356
:105AA0004D0280934C020E943F24EE24E39408E0D0
:105AB00020E34BE158E060E070E081E090E00E947C
:105AC0009F1B08E220E64BE356E06DE070E08FE0BC
:105AD00090E00E949F1B07E027E144E256E069E363
:105AE00070E089E690E00E949F1B84E896E00E94A7
:105AF0009C1B0E94C2230E94921B83FF06C088E069
:105B000090E09093500280934F0280914C029091CC
:105B10004D02883C91050CF407C710924D0210927B
:105B20004C0281E090E0FCC680914C0290914D02C5
:105B3000019690934D0280934C020E943F24EE24E4
:105B4000E39408E020E34BE158E060E070E081E09E
:105B500090E00E949F1B07E22CE348EF54E060E1D5
:105B600070E084E090E00E949F1B03E12DE241E79A
:105B700054E06FE070E08CE490E00E949F1B84E8AA
:105B800096E00E949C1B0E94C22380914C0290913F
:105B90004D02883C91050CF4C7C610924D0210923C
:105BA0004C0282E090E0BCC680914C0290914D0284
:105BB000019690934D0280934C020E943F24EE2464
:105BC000E39408E020E34BE158E060E070E081E01E
:105BD00090E00E949F1B0DE220E341E553E06FE05F
:105BE00070E087E090E00E949F1B00E329E34BEF09
:105BF00051E06DE070E08DE390E00E949F1B84E82F
:105C000096E00E949C1B0E94C22380914C029091BE
:105C10004D02883C91050CF487C610924D021092FB
:105C20004C027BC50E94D6260E948E1F80914C029A
:105C300090914D02019690934D0280934C020E94E8
:105C4000F61E0E94CB23809142029091430280383D
:105C50009105B9F40E9480362FE130E040E050E039
:105C60000E94ED36DC01CB010996A11DB11D909378
:105C700056028093550282E090E090935402809304
:105C800053028090550290905602C0904202D090EC
:105C90004302E12C0CE02CE043EC51E0B401C601DE
:105CA0000E949F1BEE24E3942CE043E951E0B401F1
:105CB000C6010E949F1B92E0C91AD10822EFC216AA
:105CC0002FEFD2062CF0D0924302C092420206C0BF
:105CD00080E890E09093430280934202C0900601D6
:105CE000D09007018091420290914302C816D906D4
:105CF000ECF09C01285F3F4F2C153D05BCF0209136
:105D00000401309105012815390584F0A4014A5F8A
